{
  "contractName": "automobileIndustry",
  "abi": [
    {
      "constant": true,
      "inputs": [],
      "name": "regulatorAddress",
      "outputs": [
        {
          "name": "",
          "type": "address"
        }
      ],
      "payable": false,
      "stateMutability": "view",
      "type": "function"
    },
    {
      "constant": true,
      "inputs": [
        {
          "name": "",
          "type": "address"
        }
      ],
      "name": "loyaltypoints",
      "outputs": [
        {
          "name": "",
          "type": "uint256"
        }
      ],
      "payable": false,
      "stateMutability": "view",
      "type": "function"
    },
    {
      "constant": true,
      "inputs": [],
      "name": "carId",
      "outputs": [
        {
          "name": "",
          "type": "uint256"
        }
      ],
      "payable": false,
      "stateMutability": "view",
      "type": "function"
    },
    {
      "inputs": [],
      "payable": false,
      "stateMutability": "nonpayable",
      "type": "constructor"
    },
    {
      "anonymous": false,
      "inputs": [
        {
          "indexed": false,
          "name": "_previousOwner",
          "type": "address"
        },
        {
          "indexed": false,
          "name": "_newOwner",
          "type": "address"
        }
      ],
      "name": "ownerChanged",
      "type": "event"
    },
    {
      "constant": false,
      "inputs": [
        {
          "name": "_newManufacture",
          "type": "address"
        }
      ],
      "name": "addManufacture",
      "outputs": [],
      "payable": false,
      "stateMutability": "nonpayable",
      "type": "function"
    },
    {
      "constant": false,
      "inputs": [
        {
          "name": "_newDealer",
          "type": "address"
        }
      ],
      "name": "addDealer",
      "outputs": [],
      "payable": false,
      "stateMutability": "nonpayable",
      "type": "function"
    },
    {
      "constant": false,
      "inputs": [
        {
          "name": "_newLeasingAgent",
          "type": "address"
        }
      ],
      "name": "addLeasingAgent",
      "outputs": [],
      "payable": false,
      "stateMutability": "nonpayable",
      "type": "function"
    },
    {
      "constant": false,
      "inputs": [
        {
          "name": "_manufacturerAddress",
          "type": "address"
        }
      ],
      "name": "registerVehicle",
      "outputs": [],
      "payable": false,
      "stateMutability": "nonpayable",
      "type": "function"
    },
    {
      "constant": true,
      "inputs": [
        {
          "name": "_carId",
          "type": "uint256"
        }
      ],
      "name": "getCar",
      "outputs": [
        {
          "name": "",
          "type": "address"
        },
        {
          "name": "",
          "type": "string"
        },
        {
          "name": "",
          "type": "string"
        },
        {
          "name": "",
          "type": "string"
        }
      ],
      "payable": false,
      "stateMutability": "view",
      "type": "function"
    },
    {
      "constant": true,
      "inputs": [],
      "name": "getLatestCarRegisteredNumber",
      "outputs": [
        {
          "name": "",
          "type": "uint256"
        }
      ],
      "payable": false,
      "stateMutability": "view",
      "type": "function"
    },
    {
      "constant": false,
      "inputs": [
        {
          "name": "_carId",
          "type": "uint256"
        },
        {
          "name": "_make",
          "type": "string"
        },
        {
          "name": "_model",
          "type": "string"
        }
      ],
      "name": "manufactureUpdateMakeandModel",
      "outputs": [],
      "payable": false,
      "stateMutability": "nonpayable",
      "type": "function"
    },
    {
      "constant": false,
      "inputs": [
        {
          "name": "_carId",
          "type": "uint256"
        }
      ],
      "name": "issueVehicleTemplateByDealer",
      "outputs": [],
      "payable": false,
      "stateMutability": "nonpayable",
      "type": "function"
    },
    {
      "constant": true,
      "inputs": [],
      "name": "getVehicleTemplatesArray",
      "outputs": [
        {
          "name": "",
          "type": "uint256[]"
        }
      ],
      "payable": false,
      "stateMutability": "view",
      "type": "function"
    },
    {
      "constant": false,
      "inputs": [
        {
          "name": "_carId",
          "type": "uint256"
        }
      ],
      "name": "transferVehicleToLeasing",
      "outputs": [],
      "payable": false,
      "stateMutability": "nonpayable",
      "type": "function"
    },
    {
      "constant": false,
      "inputs": [
        {
          "name": "_carId",
          "type": "uint256"
        },
        {
          "name": "_buyer",
          "type": "address"
        }
      ],
      "name": "buyCar",
      "outputs": [],
      "payable": false,
      "stateMutability": "nonpayable",
      "type": "function"
    },
    {
      "constant": false,
      "inputs": [
        {
          "name": "_carId",
          "type": "uint256"
        },
        {
          "name": "_callerAddress",
          "type": "address"
        }
      ],
      "name": "scrapCar",
      "outputs": [],
      "payable": false,
      "stateMutability": "nonpayable",
      "type": "function"
    }
  ],
  "bytecode": "0x6080604052600060015534801561001557600080fd5b50336000806101000a81548173ffffffffffffffffffffffffffffffffffffffff021916908373ffffffffffffffffffffffffffffffffffffffff160217905550600160046000738ca7427653bd24ee2a6291f4ba7c452ad36bf13d73ffffffffffffffffffffffffffffffffffffffff1673ffffffffffffffffffffffffffffffffffffffff16815260200190815260200160002060006101000a81548160ff0219169083151502179055506001600560007368c32f203d8edfe4a4a85eeebeec548fd68f8cf873ffffffffffffffffffffffffffffffffffffffff1673ffffffffffffffffffffffffffffffffffffffff16815260200190815260200160002060006101000a81548160ff0219169083151502179055506001600660007376e3abf064a2f68b9accb60f1b9da9d095b266ce73ffffffffffffffffffffffffffffffffffffffff1673ffffffffffffffffffffffffffffffffffffffff16815260200190815260200160002060006101000a81548160ff021916908315150217905550611404806101a96000396000f3fe608060405234801561001057600080fd5b50600436106100f55760003560e01c80636c449e7a11610097578063ca180e7411610066578063ca180e741461067f578063ea6718e6146106c3578063ebdb033414610711578063feae576c1461072f576100f5565b80636c449e7a146105675780639015c6e8146105ab578063ad574465146105d9578063ad668b1914610627576100f5565b806330493134116100d357806330493134146101b05780633826b1ea1461030c5780635e8be190146103565780636b5c952214610508576100f5565b8063068c66f1146100fa57806306d6cb761461013e5780632040888f14610182575b600080fd5b61013c6004803603602081101561011057600080fd5b81019080803573ffffffffffffffffffffffffffffffffffffffff16906020019092919050505061074d565b005b6101806004803603602081101561015457600080fd5b81019080803573ffffffffffffffffffffffffffffffffffffffff169060200190929190505050610801565b005b6101ae6004803603602081101561019857600080fd5b81019080803590602001909291905050506108b5565b005b61030a600480360360608110156101c657600080fd5b8101908080359060200190929190803590602001906401000000008111156101ed57600080fd5b8201836020820111156101ff57600080fd5b8035906020019184600183028401116401000000008311171561022157600080fd5b91908080601f016020809104026020016040519081016040528093929190818152602001838380828437600081840152601f19601f8201169050808301925050505050505091929192908035906020019064010000000081111561028457600080fd5b82018360208201111561029657600080fd5b803590602001918460018302840111640100000000831117156102b857600080fd5b91908080601f016020809104026020016040519081016040528093929190818152602001838380828437600081840152601f19601f8201169050808301925050505050505091929192905050506109fb565b005b610314610b13565b604051808273ffffffffffffffffffffffffffffffffffffffff1673ffffffffffffffffffffffffffffffffffffffff16815260200191505060405180910390f35b6103826004803603602081101561036c57600080fd5b8101908080359060200190929190505050610b38565b604051808573ffffffffffffffffffffffffffffffffffffffff1673ffffffffffffffffffffffffffffffffffffffff168152602001806020018060200180602001848103845287818151815260200191508051906020019080838360005b838110156103fc5780820151818401526020810190506103e1565b50505050905090810190601f1680156104295780820380516001836020036101000a031916815260200191505b50848103835286818151815260200191508051906020019080838360005b83811015610462578082015181840152602081019050610447565b50505050905090810190601f16801561048f5780820380516001836020036101000a031916815260200191505b50848103825285818151815260200191508051906020019080838360005b838110156104c85780820151818401526020810190506104ad565b50505050905090810190601f1680156104f55780820380516001836020036101000a031916815260200191505b5097505050505050505060405180910390f35b610510610d9b565b6040518080602001828103825283818151815260200191508051906020019060200280838360005b83811015610553578082015181840152602081019050610538565b505050509050019250505060405180910390f35b6105a96004803603602081101561057d57600080fd5b81019080803573ffffffffffffffffffffffffffffffffffffffff169060200190929190505050610df3565b005b6105d7600480360360208110156105c157600080fd5b8101908080359060200190929190505050610fd0565b005b610625600480360360408110156105ef57600080fd5b8101908080359060200190929190803573ffffffffffffffffffffffffffffffffffffffff16906020019092919050505061105f565b005b6106696004803603602081101561063d57600080fd5b81019080803573ffffffffffffffffffffffffffffffffffffffff16906020019092919050505061119e565b6040518082815260200191505060405180910390f35b6106c16004803603602081101561069557600080fd5b81019080803573ffffffffffffffffffffffffffffffffffffffff1690602001909291905050506111b6565b005b61070f600480360360408110156106d957600080fd5b8101908080359060200190929190803573ffffffffffffffffffffffffffffffffffffffff16906020019092919050505061126a565b005b610719611323565b6040518082815260200191505060405180910390f35b61073761132d565b6040518082815260200191505060405180910390f35b6000809054906101000a900473ffffffffffffffffffffffffffffffffffffffff1673ffffffffffffffffffffffffffffffffffffffff163373ffffffffffffffffffffffffffffffffffffffff16146107a657600080fd5b6001600660008373ffffffffffffffffffffffffffffffffffffffff1673ffffffffffffffffffffffffffffffffffffffff16815260200190815260200160002060006101000a81548160ff02191690831515021790555050565b6000809054906101000a900473ffffffffffffffffffffffffffffffffffffffff1673ffffffffffffffffffffffffffffffffffffffff163373ffffffffffffffffffffffffffffffffffffffff161461085a57600080fd5b6001600560008373ffffffffffffffffffffffffffffffffffffffff1673ffffffffffffffffffffffffffffffffffffffff16815260200190815260200160002060006101000a81548160ff02191690831515021790555050565b60011515600660003373ffffffffffffffffffffffffffffffffffffffff1673ffffffffffffffffffffffffffffffffffffffff16815260200190815260200160002060009054906101000a900460ff1615151461091257600080fd5b6040518060400160405280600c81526020017f6c656173696e674167656e740000000000000000000000000000000000000000815250600360008381526020019081526020016000206002019080519060200190610971929190611333565b50600a600760003373ffffffffffffffffffffffffffffffffffffffff1673ffffffffffffffffffffffffffffffffffffffff1681526020019081526020016000205401600760003373ffffffffffffffffffffffffffffffffffffffff1673ffffffffffffffffffffffffffffffffffffffff1681526020019081526020016000208190555050565b60011515600460003373ffffffffffffffffffffffffffffffffffffffff1673ffffffffffffffffffffffffffffffffffffffff16815260200190815260200160002060009054906101000a900460ff16151514610a5857600080fd5b81600360008581526020019081526020016000206003019080519060200190610a82929190611333565b5080600360008581526020019081526020016000206004019080519060200190610aad929190611333565b506040518060400160405280600681526020017f6465616c65720000000000000000000000000000000000000000000000000000815250600360008581526020019081526020016000206002019080519060200190610b0d929190611333565b50505050565b6000809054906101000a900473ffffffffffffffffffffffffffffffffffffffff1681565b600060608060606003600086815260200190815260200160002060010160009054906101000a900473ffffffffffffffffffffffffffffffffffffffff16600360008781526020019081526020016000206002016003600088815260200190815260200160002060030160036000898152602001908152602001600020600401828054600181600116156101000203166002900480601f016020809104026020016040519081016040528092919081815260200182805460018160011615610100020316600290048015610c4d5780601f10610c2257610100808354040283529160200191610c4d565b820191906000526020600020905b815481529060010190602001808311610c3057829003601f168201915b50505050509250818054600181600116156101000203166002900480601f016020809104026020016040519081016040528092919081815260200182805460018160011615610100020316600290048015610ce95780601f10610cbe57610100808354040283529160200191610ce9565b820191906000526020600020905b815481529060010190602001808311610ccc57829003601f168201915b50505050509150808054600181600116156101000203166002900480601f016020809104026020016040519081016040528092919081815260200182805460018160011615610100020316600290048015610d855780601f10610d5a57610100808354040283529160200191610d85565b820191906000526020600020905b815481529060010190602001808311610d6857829003601f168201915b5050505050905093509350935093509193509193565b60606002805480602002602001604051908101604052809291908181526020018280548015610de957602002820191906000526020600020905b815481526020019060010190808311610dd5575b5050505050905090565b6000809054906101000a900473ffffffffffffffffffffffffffffffffffffffff1673ffffffffffffffffffffffffffffffffffffffff163373ffffffffffffffffffffffffffffffffffffffff1614610e4c57600080fd5b600160008154809291906001019190505550600154600360006001548152602001908152602001600020600001819055506040518060400160405280600c81526020017f6d616e75666163747572657200000000000000000000000000000000000000008152506003600060015481526020019081526020016000206002019080519060200190610ede929190611333565b508060036000600154815260200190815260200160002060010160006101000a81548173ffffffffffffffffffffffffffffffffffffffff021916908373ffffffffffffffffffffffffffffffffffffffff1602179055507f232fba693394e47cdbc6f4760e24687abfb144ddca4600a356321757a0a129fb3382604051808373ffffffffffffffffffffffffffffffffffffffff1673ffffffffffffffffffffffffffffffffffffffff1681526020018273ffffffffffffffffffffffffffffffffffffffff1673ffffffffffffffffffffffffffffffffffffffff1681526020019250505060405180910390a150565b60028190806001815401808255809150509060018203906000526020600020016000909192909190915055506040518060400160405280600b81526020017f6465616c6572526561647900000000000000000000000000000000000000000081525060036000838152602001908152602001600020600201908051906020019061105b929190611333565b5050565b81818073ffffffffffffffffffffffffffffffffffffffff166003600084815260200190815260200160002060010160009054906101000a900473ffffffffffffffffffffffffffffffffffffffff1673ffffffffffffffffffffffffffffffffffffffff16146110cf57600080fd5b6040518060400160405280600881526020017f736372617070657200000000000000000000000000000000000000000000000081525060036000868152602001908152602001600020600201908051906020019061112e929190611333565b507307c7da9934d3492394975ff37a9d558413844b3c6003600086815260200190815260200160002060010160006101000a81548173ffffffffffffffffffffffffffffffffffffffff021916908373ffffffffffffffffffffffffffffffffffffffff16021790555050505050565b60076020528060005260406000206000915090505481565b6000809054906101000a900473ffffffffffffffffffffffffffffffffffffffff1673ffffffffffffffffffffffffffffffffffffffff163373ffffffffffffffffffffffffffffffffffffffff161461120f57600080fd5b6001600460008373ffffffffffffffffffffffffffffffffffffffff1673ffffffffffffffffffffffffffffffffffffffff16815260200190815260200160002060006101000a81548160ff02191690831515021790555050565b6040518060400160405280600481526020017f75736572000000000000000000000000000000000000000000000000000000008152506003600084815260200190815260200160002060020190805190602001906112c9929190611333565b50806003600084815260200190815260200160002060010160006101000a81548173ffffffffffffffffffffffffffffffffffffffff021916908373ffffffffffffffffffffffffffffffffffffffff1602179055505050565b6000600154905090565b60015481565b828054600181600116156101000203166002900490600052602060002090601f016020900481019282601f1061137457805160ff19168380011785556113a2565b828001600101855582156113a2579182015b828111156113a1578251825591602001919060010190611386565b5b5090506113af91906113b3565b5090565b6113d591905b808211156113d15760008160009055506001016113b9565b5090565b9056fea165627a7a7230582030dd289ce01d204bb7f4bd8f04d621b49497829c43ffa77c59e2c0d53879da670029",
  "source": "pragma solidity ^0.5.1;\n\ncontract automobileIndustry {\n    \n  \n  address public regulatorAddress;\n  \n  uint public carId = 0;\n  uint[] vehicleTemplates;\n    \n  \n  event ownerChanged(address _previousOwner, address _newOwner);\n    \n    \n  struct Car {\n      uint id;\n      address owner;\n      string ownerType;\n      string make;\n      string model;\n    }\n    \n    mapping (uint => Car) car;\n    mapping (address => bool) isManufacture;\n    mapping (address => bool) isDealer;\n    mapping (address => bool) isLeasingAgent;\n    mapping (address => uint) public loyaltypoints;\n    \n    modifier isRegulator() {\n        require(msg.sender==regulatorAddress);\n        _;\n    }\n    \n    modifier onlyManufacture() {\n        require(isManufacture[msg.sender]==true);\n        _;\n    }\n    \n    modifier onlyDealer() {\n        require(isDealer[msg.sender]==true);\n        _;\n    }\n    \n     modifier onlyLeasingAgent() {\n        require(isLeasingAgent[msg.sender]==true);\n        _;\n    }\n    \n    modifier onlyCarOwner(uint _carId,address callerAddress) {\n        require(car[_carId].owner==callerAddress);\n        _;\n    }\n    \n    constructor () public {\n        \n        regulatorAddress = msg.sender;\n        //comment this after\n        isManufacture[0x8ca7427653Bd24EE2a6291f4Ba7c452ad36Bf13d] = true;\n        isDealer[0x68C32f203D8EDfE4a4A85EEEBeEC548fd68F8cF8] = true;\n        isLeasingAgent[0x76E3ABF064a2F68b9aCcb60f1b9dA9d095B266CE] = true;\n        \n    }\n    \n    function addManufacture(address _newManufacture) public isRegulator() {\n        \n        isManufacture[_newManufacture] = true;\n    }\n    \n    function addDealer(address _newDealer) public isRegulator() {\n        \n        isDealer[_newDealer] = true;\n    }\n    \n    function addLeasingAgent(address _newLeasingAgent) public isRegulator() {\n        \n        isLeasingAgent[_newLeasingAgent] = true;\n    }\n    \n    function registerVehicle(address _manufacturerAddress) public isRegulator() {\n        \n        carId++;\n        car[carId].id = carId;\n        car[carId].ownerType = \"manufacturer\";\n        car[carId].owner = _manufacturerAddress;\n        \n         emit ownerChanged(msg.sender,_manufacturerAddress);\n    }\n    \n \n   function getCar(uint _carId) public view returns (address,string memory, string memory, string memory) {\n         \n        return (car[_carId].owner, car[_carId].ownerType, car[_carId].make, car[_carId].model);\n         \n    }\n    \n    function getLatestCarRegisteredNumber() public view returns(uint) {\n        return carId;\n    }\n    \n    function manufactureUpdateMakeandModel(uint _carId,string memory _make,string memory _model) public onlyManufacture() {\n        \n          car[_carId].make = _make;\n          car[_carId].model = _model;\n          car[_carId].ownerType = \"dealer\";\n        \n    }\n    \n    function issueVehicleTemplateByDealer(uint _carId) public {\n        vehicleTemplates.push(_carId);\n        car[_carId].ownerType = \"dealerReady\";\n    }\n    \n    function getVehicleTemplatesArray() public view returns(uint[] memory) {\n        return vehicleTemplates;\n    }\n    \n    function transferVehicleToLeasing(uint _carId) public onlyLeasingAgent() {\n        \n         car[_carId].ownerType = \"leasingAgent\";\n         loyaltypoints[msg.sender] = loyaltypoints[msg.sender] + 10;\n        \n    }\n    \n    function buyCar(uint _carId,address _buyer) public {\n        car[_carId].ownerType = \"user\";\n        car[_carId].owner = _buyer;\n        \n    }\n    \n    function scrapCar(uint _carId,address _callerAddress) public onlyCarOwner(_carId,_callerAddress) {\n        car[_carId].ownerType = \"scrapper\";\n        car[_carId].owner = 0x07C7da9934D3492394975ff37a9d558413844B3C;\n    }\n\n  \n}\n\n\n",
  "sourcePath": "/home/mohamednoushad/Documents/Miscellaneous/leya/carjourney/truffApp/contracts/automobileIndustry.sol",
  "compiler": {
    "name": "solc",
    "version": "0.5.8+commit.23d335f2.Emscripten.clang"
  },
  "schemaVersion": "3.0.13",
  "updatedAt": "2020-03-09T13:59:42.045Z",
  "devdoc": {
    "methods": {}
  },
  "userdoc": {
    "methods": {}
  }
}